S0120000436F6F6C65725F7379732E73726563F0
S11300000C942A000C9447000C9447000C9447006D
S11300100C9447000C9447000C9447000C94470040
S11300200C9447000C9447000C9447000C9446022F
S11300300C9447000C9447000C9447000C94470020
S11300400C9447000C9447000C9447000C94470010
S11300500C94470011241FBECFE5D8E0DEBFCDBF0E
S113006010E0A0E6B0E0E4E0F9E002C005900D92F3
S1130070AA36B107D9F720E0AAE6B0E001C01D9284
S1130080AD36B207E1F70E94DB010C9480040C94B6
S1130090000087B1806487B986B1806886B986B16B
S11300A0876086B9089597B1907E97B997B1892BE7
S11300B087B986B1806486B93699FECF84B195B18B
S11300C0089595B3946095BB882324F495B3906800
S11300D095BB03C095B39F7795BB86FF04C095B3CA
S11300E0906495BB03C095B39F7B95BB85FF04C00B
S11300F095B3906295BB03C095B39F7D95BB84FF78
S113010004C095B3906195BB03C095B39F7E95BB26
S113011095B3986095BBEFE9FFE03197F1F700C024
S1130120000095B3977F95BBEFE9FFE03197F1F7B6
S113013000C0000083FF04C095B3906895BB03C062
S113014095B39F7795BB82FF04C095B3906495BB2C
S113015003C095B39F7B95BB81FF04C095B39062A8
S113016095BB03C095B39F7D95BB80FF04C085B349
S1130170806185BB03C085B38F7E85BB85B38860F2
S113018085BB8FE99FE00197F1F700C0000085B3BC
S1130190877F85BBEFE9FFE03197F1F700C00000EE
S11301A0089595B39B7F95BB882324F495B39068F9
S11301B095BB03C095B39F7795BB86FF04C095B3E9
S11301C0906495BB03C095B39F7B95BB85FF04C02A
S11301D095B3906295BB03C095B39F7D95BB84FF97
S11301E004C095B3906195BB03C095B39F7E95BB46
S11301F095B3986095BBEFE9FFE03197F1F700C044
S1130200000095B3977F95BBEFE9FFE03197F1F7D5
S113021000C0000083FF04C095B3906895BB03C081
S113022095B39F7795BB82FF04C095B3906495BB4B
S113023003C095B39F7B95BB81FF04C095B39062C7
S113024095BB03C095B39F7D95BB80FF04C085B368
S1130250806185BB03C085B38F7E85BB85B3886011
S113026085BB8FE99FE00197F1F700C0000085B3DB
S1130270877F85BBEFE9FFE03197F1F700C000000D
S1130280089584B38C6F84BB83E00E94D1008FE710
S11302909EE30197F1F700C0000083E00E94D100C3
S11302A08FE79EE30197F1F700C0000083E00E940E
S11302B0D10082E00E94D10088E20E94D10081E056
S11302C00E94D10086E00E94D1008CE00E94D100FF
S11302D09FEF29EF80E0915020408040E1F700C07B
S11302E000000895FF920F931F93CF93DF93CDB730
S11302F0DEB72A970FB6F894DEBF0FBECDBF6115E7
S113030071058105910521F480E30E94610047C0D5
S1130310992354F490958095709561957F4F8F4FF4
S11303209F4FFF24F39401C0F12C00E015C02AE094
S113033030E040E050E00E943004E1E0F0E0EC0FF7
S1130340FD1FE00FF11D07FDFA95605D6083622FCC
S1130350732F842F952F0F5F61157105810591050A
S113036031F71FEF100FFF20C1F0E1E0F0E0EC0FD8
S1130370FD1FE00FF11D07FDFA958DE28083102F1C
S11303800CC0E1E0F0E0EC0FFD1FE10FF11D17FDE3
S1130390FA9580810E9461001150112394F72A96E6
S11303A00FB6F894DEBF0FBECDBFDF91CF911F9182
S11303B00F91FF9008950E9449000E94C6020E9476
S11303C041010E94FD020E94A20281B3816081BBAF
S11303D081B3826081BB82B3816082BB82B38D7F33
S11303E082BB8AB382608ABB80E00E94530001977B
S11303F0BC0180E090E00E94350320E030E040E062
S11304005FE30E949B030E94060370936C00609359
S11304106B0080E20E94610080E20E94610080E83B
S11304200E94D10060916B0070916C0080E090E0BC
S11304300E94720180916B0090916C00849768F027
S11304408BB382608BBB80916B00C82FCC0FC80F1D
S1130450CC0FC25DCA3530F406C08BB38D7F8BBB25
S1130460C0E001C0C4E680E20E94610080E20E9414
S1130470610080EC0E94D1006C2F70E080E090E07D
S11304800E9472018C2F0E94B502AECF1F920F9270
S11304900FB60F9211242F933F934F935F936F9353
S11304A07F938F939F93AF93BF93EF93FF93809129
S11304B06A00811115C020916B0030916C00ADEC85
S11304C0BCEC0E944F0496958795969587959695D2
S11304D0879561E00E94DF0281E080936A0021C079
S11304E040916B0030916C00242FADECBCEC0E9469
S11304F04F049695879596958795969587959C0133
S1130500220F331F880F991F880F991F880F991F77
S1130510820F931F62E0481B842F0E94DF02109217
S11305206A00FF91EF91BF91AF919F918F917F915D
S11305306F915F914F913F912F910F900FBE0F904C
S11305401F90189581B3806281BB8FB580688FBD81
S11305508FB581608FBD8FB582608FBD8FB5886088
S11305608FBD8EB581608EBD0895682F70E080E0E8
S113057090E00E94370324E13EEA43E251E40E9402
S11305809B030E9406037BBD6ABD089587B38F67F2
S113059087BB8FE788BB84B3816084BB84B38260EC
S11305A084BB80E009C0E82FF0E0E05AFF4F2081CF
S11305B09FE7922790838F5F8A30A8F3089595B3BD
S11305C09E7F95BB95B39D7F95BB613019F06230DA
S11305D029F007C095B3916095BB03C095B39260B1
S11305E095BB98B3907898BB98B3E82FF0E0E05AA5
S11305F0FF4F8081892B88BB089583E883BF89B727
S1130600816089BF8FB780688FBF08950E947A0385
S113061088F09F5798F0B92F9927B751B0F0E1F0BF
S1130620660F771F881F991F1AF0BA95C9F714C06F
S1130630B13091F00E949403B1E008950C949403B6
S1130640672F782F8827B85F39F0B93FCCF38695A8
S113065077956795B395D9F73EF490958095709505
S113066061957F4F8F4F9F4F0895E89409C097FB82
S11306703EF490958095709561957F4F8F4F9F4F75
S11306809923A9F0F92F96E9BB279395F6958795B9
S113069077956795B795F111F8CFFAF4BB0F11F47C
S11306A060FF1BC06F5F7F4F8F4F9F4F16C0882323
S11306B011F096E911C0772321F09EE8872F762F59
S11306C005C0662371F096E8862F70E060E02AF09A
S11306D09A95660F771F881FDAF7880F9695879586
S11306E097F9089557FD9058440F551F59F05F3FEF
S11306F071F04795880F97FB991F61F09F3F79F040
S113070087950895121613061406551FF2CF4695C1
S1130710F1DF08C0161617061806991FF1CF869543
S11307207105610508940895E894BB276627772727
S1130730CB0197F908950E94AE030C941F040E9404
S1130740110438F00E94180420F0952311F00C9441
S113075008040C940E0411240C9495030E94720353
S113076070F3959FC1F3950F50E0551F629FF00100
S1130770729FBB27F00DB11D639FAA27F00DB11D19
S1130780AA1F649F6627B00DA11D661F829F2227A2
S1130790B00DA11D621F739FB00DA11D621F839F29
S11307A0A00D611D221F749F3327A00D611D231FFF
S11307B0849F600D211D822F762F6A2F11249F574D
S11307C050409AF0F1F088234AF0EE0FFF1FBB1F50
S11307D0661F771F881F91505040A9F79E3F51050F
S11307E080F00C9408040C9495035F3FE4F3983E66
S11307F0D4F3869577956795B795F795E7959F5FB9
S1130800C1F7FE2B880F911D9695879597F908954A
S113081097F99F6780E870E060E008959FEF80ECAF
S1130820089500240A941616170618060906089552
S113083000240A9412161306140605060895092EB8
S11308400394000C11F4882352F0BB0F40F4BF2B27
S113085011F460FF04C06F5F7F4F8F4F9F4F089567
S1130860052E97FB1EF400940E94470457FD07D001
S11308700E945E0407FC03D04EF40C944704509588
S11308804095309521953F4F4F4F5F4F0895909578
S11308908095709561957F4F8F4F9F4F0895A29FCC
S11308A0B001B39FC001A39F700D811D1124911D40
S11308B0B29F700D811D1124911D0895A1E21A2E7D
S11308C0AA1BBB1BFD010DC0AA1FBB1FEE1FFF1FF0
S11308D0A217B307E407F50720F0A21BB30BE40B40
S11308E0F50B661F771F881F991F1A9469F7609587
S11308F07095809590959B01AC01BD01CF01089541
S1070900F894FFCF95
S10D09043F065B4F666D7D077F6FB1
S9030000FC
